{
  "contractName": "RedeemPoolA",
  "abi": [
    {
      "inputs": [
        {
          "internalType": "contract AToken",
          "name": "_atoken",
          "type": "address"
        }
      ],
      "payable": false,
      "stateMutability": "nonpayable",
      "type": "constructor"
    },
    {
      "constant": true,
      "inputs": [],
      "name": "atoken",
      "outputs": [
        {
          "internalType": "contract AToken",
          "name": "",
          "type": "address"
        }
      ],
      "payable": false,
      "stateMutability": "view",
      "type": "function"
    },
    {
      "constant": true,
      "inputs": [],
      "name": "name",
      "outputs": [
        {
          "internalType": "string",
          "name": "",
          "type": "string"
        }
      ],
      "payable": false,
      "stateMutability": "view",
      "type": "function"
    },
    {
      "constant": true,
      "inputs": [],
      "name": "owner",
      "outputs": [
        {
          "internalType": "address",
          "name": "",
          "type": "address"
        }
      ],
      "payable": false,
      "stateMutability": "view",
      "type": "function"
    },
    {
      "constant": false,
      "inputs": [
        {
          "internalType": "uint256",
          "name": "_amountA",
          "type": "uint256"
        }
      ],
      "name": "redeem",
      "outputs": [],
      "payable": false,
      "stateMutability": "nonpayable",
      "type": "function"
    }
  ],
  "bytecode": "0x60806040526040518060400160405280600d81526020017f52656465656d20506f6f6c2041000000000000000000000000000000000000008152506000908051906020019061004f929190610118565b5034801561005c57600080fd5b506040516106a23803806106a28339818101604052602081101561007f57600080fd5b810190808051906020019092919050505080600160006101000a81548173ffffffffffffffffffffffffffffffffffffffff021916908373ffffffffffffffffffffffffffffffffffffffff16021790555033600260006101000a81548173ffffffffffffffffffffffffffffffffffffffff021916908373ffffffffffffffffffffffffffffffffffffffff160217905550506101bd565b828054600181600116156101000203166002900490600052602060002090601f016020900481019282601f1061015957805160ff1916838001178555610187565b82800160010185558215610187579182015b8281111561018657825182559160200191906001019061016b565b5b5090506101949190610198565b5090565b6101ba91905b808211156101b657600081600090555060010161019e565b5090565b90565b6104d6806101cc6000396000f3fe608060405234801561001057600080fd5b506004361061004c5760003560e01c806306fdde03146100515780638da5cb5b146100d4578063a293b0cd1461011e578063db006a7514610168575b600080fd5b610059610196565b6040518080602001828103825283818151815260200191508051906020019080838360005b8381101561009957808201518184015260208101905061007e565b50505050905090810190601f1680156100c65780820380516001836020036101000a031916815260200191505b509250505060405180910390f35b6100dc610234565b604051808273ffffffffffffffffffffffffffffffffffffffff1673ffffffffffffffffffffffffffffffffffffffff16815260200191505060405180910390f35b61012661025a565b604051808273ffffffffffffffffffffffffffffffffffffffff1673ffffffffffffffffffffffffffffffffffffffff16815260200191505060405180910390f35b6101946004803603602081101561017e57600080fd5b8101908080359060200190929190505050610280565b005b60008054600181600116156101000203166002900480601f01602080910402602001604051908101604052809291908181526020018280546001816001161561010002031660029004801561022c5780601f106102015761010080835404028352916020019161022c565b820191906000526020600020905b81548152906001019060200180831161020f57829003601f168201915b505050505081565b600260009054906101000a900473ffffffffffffffffffffffffffffffffffffffff1681565b600160009054906101000a900473ffffffffffffffffffffffffffffffffffffffff1681565b80600160009054906101000a900473ffffffffffffffffffffffffffffffffffffffff1673ffffffffffffffffffffffffffffffffffffffff166370a08231336040518263ffffffff1660e01b8152600401808273ffffffffffffffffffffffffffffffffffffffff1673ffffffffffffffffffffffffffffffffffffffff16815260200191505060206040518083038186803b15801561032057600080fd5b505afa158015610334573d6000803e3d6000fd5b505050506040513d602081101561034a57600080fd5b8101908080519060200190929190505050101561036657600080fd5b6000670de0b6b3a76400009050600081838161037e57fe5b049050600160009054906101000a900473ffffffffffffffffffffffffffffffffffffffff1673ffffffffffffffffffffffffffffffffffffffff166323b872dd33308585026040518463ffffffff1660e01b8152600401808473ffffffffffffffffffffffffffffffffffffffff1673ffffffffffffffffffffffffffffffffffffffff1681526020018373ffffffffffffffffffffffffffffffffffffffff1673ffffffffffffffffffffffffffffffffffffffff1681526020018281526020019350505050602060405180830381600087803b15801561046057600080fd5b505af1158015610474573d6000803e3d6000fd5b505050506040513d602081101561048a57600080fd5b81019080805190602001909291905050505050505056fea265627a7a72315820a4a8cb05d5b8b739e904796aca5ef3849353a90cf04d3204a59ae7dcd17db80764736f6c63430005100032",
  "source": "pragma solidity >= 0.5.0;\n\nimport \"./AToken.sol\";\n\ncontract RedeemPoolA {\n\tstring public name = \"Redeem Pool A\";\n\tAToken public atoken;\n\taddress public owner;\n\n\tconstructor(AToken _atoken) public {\n\t\tatoken = _atoken;\n\t\t// set deployer as owner of the contract\n\t\towner = msg.sender;\n\t}\n\n\tfunction redeem (uint _amountA) public {\n\n\t\t//investors cannot stake more atoken than they have\n\t\trequire(atoken.balanceOf(msg.sender) >= _amountA);\n\n\t\t//erc20 token: 1 ether == 10^18 wei\n\t\tuint unit = 10**18;\n\n\t\t//calculate how much A token to transfer to redeem pool \n\t\tuint amountATokenInEther = _amountA / unit;\n\n\t\tatoken.transferFrom(msg.sender, address(this), amountATokenInEther*unit);\n\t\t//atoken.transferFrom(msg.sender, address(this), _amountA);\n\t\t\n\t}\n\n}\n",
  "sourcePath": "C:\\Users\\A0928\\OneDrive\\文件\\GitHub\\Fundraising-Platform\\truffle\\contracts\\RedeemPoolA.sol",
  "compiler": {
    "name": "solc",
    "version": "0.5.16+commit.9c3226ce.Emscripten.clang"
  },
  "schemaVersion": "3.4.6",
  "updatedAt": "2022-11-03T17:13:51.924Z",
  "devdoc": {
    "methods": {}
  },
  "userdoc": {
    "methods": {}
  }
}