{
  "contractName": "StakeA",
  "abi": [
    {
      "inputs": [
        {
          "internalType": "contract MUsdt",
          "name": "_musdt",
          "type": "address"
        },
        {
          "internalType": "contract AToken",
          "name": "_atoken",
          "type": "address"
        }
      ],
      "payable": false,
      "stateMutability": "nonpayable",
      "type": "constructor"
    },
    {
      "constant": true,
      "inputs": [],
      "name": "atoken",
      "outputs": [
        {
          "internalType": "contract AToken",
          "name": "",
          "type": "address"
        }
      ],
      "payable": false,
      "stateMutability": "view",
      "type": "function"
    },
    {
      "constant": true,
      "inputs": [],
      "name": "musdt",
      "outputs": [
        {
          "internalType": "contract MUsdt",
          "name": "",
          "type": "address"
        }
      ],
      "payable": false,
      "stateMutability": "view",
      "type": "function"
    },
    {
      "constant": true,
      "inputs": [],
      "name": "name",
      "outputs": [
        {
          "internalType": "string",
          "name": "",
          "type": "string"
        }
      ],
      "payable": false,
      "stateMutability": "view",
      "type": "function"
    },
    {
      "constant": true,
      "inputs": [],
      "name": "owner",
      "outputs": [
        {
          "internalType": "address",
          "name": "",
          "type": "address"
        }
      ],
      "payable": false,
      "stateMutability": "view",
      "type": "function"
    },
    {
      "constant": true,
      "inputs": [],
      "name": "rateStake",
      "outputs": [
        {
          "internalType": "uint256",
          "name": "",
          "type": "uint256"
        }
      ],
      "payable": false,
      "stateMutability": "view",
      "type": "function"
    },
    {
      "constant": false,
      "inputs": [
        {
          "internalType": "uint256",
          "name": "_addLiquidityAmountUsdt",
          "type": "uint256"
        },
        {
          "internalType": "uint256",
          "name": "_addLiquidityAmountA",
          "type": "uint256"
        }
      ],
      "name": "addLiquidity",
      "outputs": [],
      "payable": false,
      "stateMutability": "nonpayable",
      "type": "function"
    },
    {
      "constant": false,
      "inputs": [
        {
          "internalType": "uint256",
          "name": "_withdrawLiquidityAmountUsdt",
          "type": "uint256"
        },
        {
          "internalType": "uint256",
          "name": "_withdrawLiquidityAmountA",
          "type": "uint256"
        }
      ],
      "name": "withdrawLiquidity",
      "outputs": [],
      "payable": false,
      "stateMutability": "nonpayable",
      "type": "function"
    },
    {
      "constant": false,
      "inputs": [
        {
          "internalType": "uint256",
          "name": "_amountUsdt",
          "type": "uint256"
        }
      ],
      "name": "stake",
      "outputs": [],
      "payable": false,
      "stateMutability": "nonpayable",
      "type": "function"
    }
  ],
  "bytecode": "0x60806040526040518060400160405280600c81526020017f5374616b6520506f6f6c20410000000000000000000000000000000000000000815250600090805190602001906200005192919062000170565b5060026004553480156200006457600080fd5b506040516200149138038062001491833981810160405260408110156200008a57600080fd5b81019080805190602001909291908051906020019092919050505081600160006101000a81548173ffffffffffffffffffffffffffffffffffffffff021916908373ffffffffffffffffffffffffffffffffffffffff16021790555080600260006101000a81548173ffffffffffffffffffffffffffffffffffffffff021916908373ffffffffffffffffffffffffffffffffffffffff16021790555033600360006101000a81548173ffffffffffffffffffffffffffffffffffffffff021916908373ffffffffffffffffffffffffffffffffffffffff16021790555050506200021f565b828054600181600116156101000203166002900490600052602060002090601f016020900481019282601f10620001b357805160ff1916838001178555620001e4565b82800160010185558215620001e4579182015b82811115620001e3578251825591602001919060010190620001c6565b5b509050620001f39190620001f7565b5090565b6200021c91905b8082111562000218576000816000905550600101620001fe565b5090565b90565b611262806200022f6000396000f3fe608060405234801561001057600080fd5b50600436106100885760003560e01c8063a293b0cd1161005b578063a293b0cd146101ca578063a694fc3a14610214578063c459a88814610242578063cdd88c221461028c57610088565b806306fdde031461008d5780637ddced5a146101105780638da5cb5b146101485780639cd441da14610192575b600080fd5b6100956102aa565b6040518080602001828103825283818151815260200191508051906020019080838360005b838110156100d55780820151818401526020810190506100ba565b50505050905090810190601f1680156101025780820380516001836020036101000a031916815260200191505b509250505060405180910390f35b6101466004803603604081101561012657600080fd5b810190808035906020019092919080359060200190929190505050610348565b005b6101506107f0565b604051808273ffffffffffffffffffffffffffffffffffffffff1673ffffffffffffffffffffffffffffffffffffffff16815260200191505060405180910390f35b6101c8600480360360408110156101a857600080fd5b810190808035906020019092919080359060200190929190505050610816565b005b6101d2610d26565b604051808273ffffffffffffffffffffffffffffffffffffffff1673ffffffffffffffffffffffffffffffffffffffff16815260200191505060405180910390f35b6102406004803603602081101561022a57600080fd5b8101908080359060200190929190505050610d4c565b005b61024a611151565b604051808273ffffffffffffffffffffffffffffffffffffffff1673ffffffffffffffffffffffffffffffffffffffff16815260200191505060405180910390f35b610294611177565b6040518082815260200191505060405180910390f35b60008054600181600116156101000203166002900480601f0160208091040260200160405190810160405280929190818152602001828054600181600116156101000203166002900480156103405780601f1061031557610100808354040283529160200191610340565b820191906000526020600020905b81548152906001019060200180831161032357829003601f168201915b505050505081565b600360009054906101000a900473ffffffffffffffffffffffffffffffffffffffff1673ffffffffffffffffffffffffffffffffffffffff163373ffffffffffffffffffffffffffffffffffffffff16146103a257600080fd5b60008210156103fc576040517f08c379a00000000000000000000000000000000000000000000000000000000081526004018080602001828103825260308152602001806111fe6030913960400191505060405180910390fd5b6000811015610456576040517f08c379a000000000000000000000000000000000000000000000000000000000815260040180806020018281038252602d8152602001806111d1602d913960400191505060405180910390fd5b81600160009054906101000a900473ffffffffffffffffffffffffffffffffffffffff1673ffffffffffffffffffffffffffffffffffffffff166370a08231306040518263ffffffff1660e01b8152600401808273ffffffffffffffffffffffffffffffffffffffff1673ffffffffffffffffffffffffffffffffffffffff16815260200191505060206040518083038186803b1580156104f657600080fd5b505afa15801561050a573d6000803e3d6000fd5b505050506040513d602081101561052057600080fd5b8101908080519060200190929190505050101561053c57600080fd5b80600260009054906101000a900473ffffffffffffffffffffffffffffffffffffffff1673ffffffffffffffffffffffffffffffffffffffff166370a08231306040518263ffffffff1660e01b8152600401808273ffffffffffffffffffffffffffffffffffffffff1673ffffffffffffffffffffffffffffffffffffffff16815260200191505060206040518083038186803b1580156105dc57600080fd5b505afa1580156105f0573d6000803e3d6000fd5b505050506040513d602081101561060657600080fd5b8101908080519060200190929190505050101561062257600080fd5b600160009054906101000a900473ffffffffffffffffffffffffffffffffffffffff1673ffffffffffffffffffffffffffffffffffffffff1663a9059cbb33846040518363ffffffff1660e01b8152600401808373ffffffffffffffffffffffffffffffffffffffff1673ffffffffffffffffffffffffffffffffffffffff16815260200182815260200192505050602060405180830381600087803b1580156106cb57600080fd5b505af11580156106df573d6000803e3d6000fd5b505050506040513d60208110156106f557600080fd5b810190808051906020019092919050505050600260009054906101000a900473ffffffffffffffffffffffffffffffffffffffff1673ffffffffffffffffffffffffffffffffffffffff1663a9059cbb33836040518363ffffffff1660e01b8152600401808373ffffffffffffffffffffffffffffffffffffffff1673ffffffffffffffffffffffffffffffffffffffff16815260200182815260200192505050602060405180830381600087803b1580156107b057600080fd5b505af11580156107c4573d6000803e3d6000fd5b505050506040513d60208110156107da57600080fd5b8101908080519060200190929190505050505050565b600360009054906101000a900473ffffffffffffffffffffffffffffffffffffffff1681565b600360009054906101000a900473ffffffffffffffffffffffffffffffffffffffff1673ffffffffffffffffffffffffffffffffffffffff163373ffffffffffffffffffffffffffffffffffffffff161461087057600080fd5b60008210156108ca576040517f08c379a000000000000000000000000000000000000000000000000000000000815260040180806020018281038252602b81526020018061117e602b913960400191505060405180910390fd5b6000811015610924576040517f08c379a00000000000000000000000000000000000000000000000000000000081526004018080602001828103825260288152602001806111a96028913960400191505060405180910390fd5b81600160009054906101000a900473ffffffffffffffffffffffffffffffffffffffff1673ffffffffffffffffffffffffffffffffffffffff166370a08231336040518263ffffffff1660e01b8152600401808273ffffffffffffffffffffffffffffffffffffffff1673ffffffffffffffffffffffffffffffffffffffff16815260200191505060206040518083038186803b1580156109c457600080fd5b505afa1580156109d8573d6000803e3d6000fd5b505050506040513d60208110156109ee57600080fd5b81019080805190602001909291905050501015610a0a57600080fd5b80600260009054906101000a900473ffffffffffffffffffffffffffffffffffffffff1673ffffffffffffffffffffffffffffffffffffffff166370a08231336040518263ffffffff1660e01b8152600401808273ffffffffffffffffffffffffffffffffffffffff1673ffffffffffffffffffffffffffffffffffffffff16815260200191505060206040518083038186803b158015610aaa57600080fd5b505afa158015610abe573d6000803e3d6000fd5b505050506040513d6020811015610ad457600080fd5b81019080805190602001909291905050501015610af057600080fd5b600160009054906101000a900473ffffffffffffffffffffffffffffffffffffffff1673ffffffffffffffffffffffffffffffffffffffff166323b872dd3330856040518463ffffffff1660e01b8152600401808473ffffffffffffffffffffffffffffffffffffffff1673ffffffffffffffffffffffffffffffffffffffff1681526020018373ffffffffffffffffffffffffffffffffffffffff1673ffffffffffffffffffffffffffffffffffffffff1681526020018281526020019350505050602060405180830381600087803b158015610bcd57600080fd5b505af1158015610be1573d6000803e3d6000fd5b505050506040513d6020811015610bf757600080fd5b810190808051906020019092919050505050600260009054906101000a900473ffffffffffffffffffffffffffffffffffffffff1673ffffffffffffffffffffffffffffffffffffffff166323b872dd3330846040518463ffffffff1660e01b8152600401808473ffffffffffffffffffffffffffffffffffffffff1673ffffffffffffffffffffffffffffffffffffffff1681526020018373ffffffffffffffffffffffffffffffffffffffff1673ffffffffffffffffffffffffffffffffffffffff1681526020018281526020019350505050602060405180830381600087803b158015610ce657600080fd5b505af1158015610cfa573d6000803e3d6000fd5b505050506040513d6020811015610d1057600080fd5b8101908080519060200190929190505050505050565b600260009054906101000a900473ffffffffffffffffffffffffffffffffffffffff1681565b80600160009054906101000a900473ffffffffffffffffffffffffffffffffffffffff1673ffffffffffffffffffffffffffffffffffffffff166370a08231336040518263ffffffff1660e01b8152600401808273ffffffffffffffffffffffffffffffffffffffff1673ffffffffffffffffffffffffffffffffffffffff16815260200191505060206040518083038186803b158015610dec57600080fd5b505afa158015610e00573d6000803e3d6000fd5b505050506040513d6020811015610e1657600080fd5b81019080805190602001909291905050501015610e3257600080fd5b6000670de0b6b3a764000090506000818381610e4a57fe5b04905060006004548281610e5a57fe5b049050828102600260009054906101000a900473ffffffffffffffffffffffffffffffffffffffff1673ffffffffffffffffffffffffffffffffffffffff166370a08231306040518263ffffffff1660e01b8152600401808273ffffffffffffffffffffffffffffffffffffffff1673ffffffffffffffffffffffffffffffffffffffff16815260200191505060206040518083038186803b158015610eff57600080fd5b505afa158015610f13573d6000803e3d6000fd5b505050506040513d6020811015610f2957600080fd5b81019080805190602001909291905050501015610f4557600080fd5b600160009054906101000a900473ffffffffffffffffffffffffffffffffffffffff1673ffffffffffffffffffffffffffffffffffffffff166323b872dd3330866004548602026040518463ffffffff1660e01b8152600401808473ffffffffffffffffffffffffffffffffffffffff1673ffffffffffffffffffffffffffffffffffffffff1681526020018373ffffffffffffffffffffffffffffffffffffffff1673ffffffffffffffffffffffffffffffffffffffff1681526020018281526020019350505050602060405180830381600087803b15801561102857600080fd5b505af115801561103c573d6000803e3d6000fd5b505050506040513d602081101561105257600080fd5b810190808051906020019092919050505050600260009054906101000a900473ffffffffffffffffffffffffffffffffffffffff1673ffffffffffffffffffffffffffffffffffffffff1663a9059cbb338584026040518363ffffffff1660e01b8152600401808373ffffffffffffffffffffffffffffffffffffffff1673ffffffffffffffffffffffffffffffffffffffff16815260200182815260200192505050602060405180830381600087803b15801561110f57600080fd5b505af1158015611123573d6000803e3d6000fd5b505050506040513d602081101561113957600080fd5b81019080805190602001909291905050505050505050565b600160009054906101000a900473ffffffffffffffffffffffffffffffffffffffff1681565b6004548156fe616464696e6720616d6f756e7420557364742073686f756c642062652067726561746572207468616e2030616464696e6720616d6f756e7420412073686f756c642062652067726561746572207468616e20307769746864726177696e6720616d6f756e7420412073686f756c642062652067726561746572207468616e20307769746864726177696e6720616d6f756e7420557364742073686f756c642062652067726561746572207468616e2030a265627a7a723158209c50c2e92beee02c2ab24d1d01d9da97e79bee6c3be214fa6b8912af6c7e44ab64736f6c63430005100032",
  "source": "pragma solidity ^0.5.0;\n\nimport \"./MUsdt.sol\";\nimport \"./AToken.sol\";\n\ncontract StakeA {\n\tstring public name = \"Stake Pool A\";\n\tMUsdt public musdt;\n\tAToken public atoken;\n\taddress public owner;\n\t//set transfer rate\n\tuint public rateStake = 2;\n\t\n\t\n\n\tconstructor(MUsdt _musdt ,AToken _atoken) public {\n\t\tmusdt = _musdt;\n\t\tatoken = _atoken;\n\t\t// set deployer as owner of the contract\n\t\towner = msg.sender;\n\t}\n\n\tfunction addLiquidity(uint _addLiquidityAmountUsdt, uint _addLiquidityAmountA) public {\n\t\t//only owner can add liquidity && adding amount should >= 0 && liquidity provider should have enough token \n\t\trequire(msg.sender == owner);\n\t\trequire(_addLiquidityAmountUsdt>= 0, \"adding amount Usdt should be greater than 0\");\n\t\trequire(_addLiquidityAmountA >= 0, \"adding amount A should be greater than 0\");\n\t\trequire(musdt.balanceOf(msg.sender) >= _addLiquidityAmountUsdt);\n\t\trequire(atoken.balanceOf(msg.sender) >= _addLiquidityAmountA);\n\n\t\t// add liquidity \n\t\tmusdt.transferFrom(msg.sender, address(this), _addLiquidityAmountUsdt);\n\t\tatoken.transferFrom(msg.sender, address(this), _addLiquidityAmountA);\n\t\t\n\n\t}\n\n\tfunction withdrawLiquidity(uint _withdrawLiquidityAmountUsdt, uint _withdrawLiquidityAmountA) public {\n\t\t//only owner can withdraw liquidity &&  withdrawing amount should >=0 && pool should have enough token to be withdrew\n\t\trequire(msg.sender == owner);\n\t\trequire(_withdrawLiquidityAmountUsdt >= 0, \"withdrawing amount Usdt should be greater than 0\");\n\t\trequire(_withdrawLiquidityAmountA >= 0, \"withdrawing amount A should be greater than 0\");\n\t\trequire(musdt.balanceOf(address(this)) >= _withdrawLiquidityAmountUsdt);\n\t\trequire(atoken.balanceOf(address(this)) >= _withdrawLiquidityAmountA);\n\n\t\t//withdraw liquidity\n\t\tmusdt.transfer(msg.sender, _withdrawLiquidityAmountUsdt);\n\t\tatoken.transfer(msg.sender, _withdrawLiquidityAmountA);\n\t}\n\n\tfunction stake(uint _amountUsdt) public {\n\n\t\t//investors cannot stake more MUsdt than they have\n\t\trequire(musdt.balanceOf(msg.sender) >= _amountUsdt);\n\n\t\t//erc20 token: 1 ether == 10^18 wei\n\t\tuint unit = 10 ** 18;\n\n\t\t//transform _amountUsdt to the form of \"ether basis\" and round to integer\n\t\tuint amountUsdtInEther = _amountUsdt / unit;\n\n\t\t//calculate how much A token to transfer to staker\n\t\tuint amountATokenInEther = amountUsdtInEther / rateStake;\n\n\t\t//pool has enough token A \n\t\trequire(atoken.balanceOf(address(this)) >= amountATokenInEther*unit);\n\n\t\t//transfer usdt from investor's wallet to pool\n\t\tmusdt.transferFrom(msg.sender, address(this), amountATokenInEther*rateStake*unit);\n\n\t\t//transfer A token from pool to investor\n\t\tatoken.transfer(msg.sender, amountATokenInEther*unit);\n\t}\n\n\n\n\n\n\n\n\n\n\n}",
  "sourcePath": "/Users/kevin/Desktop/Fundraising-Platform/truffle/contracts/StakeA.sol",
  "compiler": {
    "name": "solc",
    "version": "0.5.16+commit.9c3226ce.Emscripten.clang"
  },
  "schemaVersion": "3.4.8",
  "updatedAt": "2022-10-25T16:38:14.318Z",
  "networkType": "ethereum",
  "devdoc": {
    "methods": {}
  },
  "userdoc": {
    "methods": {}
  }
}