{
  "contractName": "StakeA",
  "abi": [
    {
      "inputs": [
        {
          "internalType": "contract MTwd",
          "name": "_mtwd",
          "type": "address"
        },
        {
          "internalType": "contract AToken",
          "name": "_atoken",
          "type": "address"
        }
      ],
      "payable": false,
      "stateMutability": "nonpayable",
      "type": "constructor"
    },
    {
      "constant": true,
      "inputs": [],
      "name": "atoken",
      "outputs": [
        {
          "internalType": "contract AToken",
          "name": "",
          "type": "address"
        }
      ],
      "payable": false,
      "stateMutability": "view",
      "type": "function"
    },
    {
      "constant": true,
      "inputs": [],
      "name": "mtwd",
      "outputs": [
        {
          "internalType": "contract MTwd",
          "name": "",
          "type": "address"
        }
      ],
      "payable": false,
      "stateMutability": "view",
      "type": "function"
    },
    {
      "constant": true,
      "inputs": [],
      "name": "name",
      "outputs": [
        {
          "internalType": "string",
          "name": "",
          "type": "string"
        }
      ],
      "payable": false,
      "stateMutability": "view",
      "type": "function"
    },
    {
      "constant": true,
      "inputs": [],
      "name": "owner",
      "outputs": [
        {
          "internalType": "address",
          "name": "",
          "type": "address"
        }
      ],
      "payable": false,
      "stateMutability": "view",
      "type": "function"
    },
    {
      "constant": true,
      "inputs": [],
      "name": "rateStake",
      "outputs": [
        {
          "internalType": "uint256",
          "name": "",
          "type": "uint256"
        }
      ],
      "payable": false,
      "stateMutability": "view",
      "type": "function"
    },
    {
      "constant": true,
      "inputs": [
        {
          "internalType": "address",
          "name": "",
          "type": "address"
        }
      ],
      "name": "stakingBalance",
      "outputs": [
        {
          "internalType": "uint256",
          "name": "",
          "type": "uint256"
        }
      ],
      "payable": false,
      "stateMutability": "view",
      "type": "function"
    },
    {
      "constant": false,
      "inputs": [
        {
          "internalType": "uint256",
          "name": "_addLiquidityAmountTwd",
          "type": "uint256"
        },
        {
          "internalType": "uint256",
          "name": "_addLiquidityAmountA",
          "type": "uint256"
        }
      ],
      "name": "addLiquidity",
      "outputs": [],
      "payable": false,
      "stateMutability": "nonpayable",
      "type": "function"
    },
    {
      "constant": false,
      "inputs": [
        {
          "internalType": "uint256",
          "name": "_withdrawLiquidityAmountTwd",
          "type": "uint256"
        },
        {
          "internalType": "uint256",
          "name": "_withdrawLiquidityAmountA",
          "type": "uint256"
        }
      ],
      "name": "withdrawLiquidity",
      "outputs": [],
      "payable": false,
      "stateMutability": "nonpayable",
      "type": "function"
    },
    {
      "constant": false,
      "inputs": [
        {
          "internalType": "uint256",
          "name": "_amountTwd",
          "type": "uint256"
        }
      ],
      "name": "stake",
      "outputs": [],
      "payable": false,
      "stateMutability": "nonpayable",
      "type": "function"
    }
  ],
  "bytecode": "0x60806040526040518060400160405280600c81526020017f5374616b6520506f6f6c20410000000000000000000000000000000000000000815250600090805190602001906200005192919062000170565b5060016004553480156200006457600080fd5b506040516200158f3803806200158f833981810160405260408110156200008a57600080fd5b81019080805190602001909291908051906020019092919050505081600160006101000a81548173ffffffffffffffffffffffffffffffffffffffff021916908373ffffffffffffffffffffffffffffffffffffffff16021790555080600260006101000a81548173ffffffffffffffffffffffffffffffffffffffff021916908373ffffffffffffffffffffffffffffffffffffffff16021790555033600360006101000a81548173ffffffffffffffffffffffffffffffffffffffff021916908373ffffffffffffffffffffffffffffffffffffffff16021790555050506200021f565b828054600181600116156101000203166002900490600052602060002090601f016020900481019282601f10620001b357805160ff1916838001178555620001e4565b82800160010185558215620001e4579182015b82811115620001e3578251825591602001919060010190620001c6565b5b509050620001f39190620001f7565b5090565b6200021c91905b8082111562000218576000816000905550600101620001fe565b5090565b90565b611360806200022f6000396000f3fe608060405234801561001057600080fd5b50600436106100935760003560e01c80638da5cb5b116100665780638da5cb5b146101f55780639cd441da1461023f578063a293b0cd14610277578063a694fc3a146102c1578063cdd88c22146102ef57610093565b806306fdde031461009857806345bc78ab1461011b5780637bd829a4146101735780637ddced5a146101bd575b600080fd5b6100a061030d565b6040518080602001828103825283818151815260200191508051906020019080838360005b838110156100e05780820151818401526020810190506100c5565b50505050905090810190601f16801561010d5780820380516001836020036101000a031916815260200191505b509250505060405180910390f35b61015d6004803603602081101561013157600080fd5b81019080803573ffffffffffffffffffffffffffffffffffffffff1690602001909291905050506103ab565b6040518082815260200191505060405180910390f35b61017b6103c3565b604051808273ffffffffffffffffffffffffffffffffffffffff1673ffffffffffffffffffffffffffffffffffffffff16815260200191505060405180910390f35b6101f3600480360360408110156101d357600080fd5b8101908080359060200190929190803590602001909291905050506103e9565b005b6101fd610891565b604051808273ffffffffffffffffffffffffffffffffffffffff1673ffffffffffffffffffffffffffffffffffffffff16815260200191505060405180910390f35b6102756004803603604081101561025557600080fd5b8101908080359060200190929190803590602001909291905050506108b7565b005b61027f610dc7565b604051808273ffffffffffffffffffffffffffffffffffffffff1673ffffffffffffffffffffffffffffffffffffffff16815260200191505060405180910390f35b6102ed600480360360208110156102d757600080fd5b8101908080359060200190929190505050610ded565b005b6102f7611277565b6040518082815260200191505060405180910390f35b60008054600181600116156101000203166002900480601f0160208091040260200160405190810160405280929190818152602001828054600181600116156101000203166002900480156103a35780601f10610378576101008083540402835291602001916103a3565b820191906000526020600020905b81548152906001019060200180831161038657829003601f168201915b505050505081565b60056020528060005260406000206000915090505481565b600160009054906101000a900473ffffffffffffffffffffffffffffffffffffffff1681565b600360009054906101000a900473ffffffffffffffffffffffffffffffffffffffff1673ffffffffffffffffffffffffffffffffffffffff163373ffffffffffffffffffffffffffffffffffffffff161461044357600080fd5b600082101561049d576040517f08c379a000000000000000000000000000000000000000000000000000000000815260040180806020018281038252602f8152602001806112fd602f913960400191505060405180910390fd5b60008110156104f7576040517f08c379a000000000000000000000000000000000000000000000000000000000815260040180806020018281038252602d8152602001806112d0602d913960400191505060405180910390fd5b81600160009054906101000a900473ffffffffffffffffffffffffffffffffffffffff1673ffffffffffffffffffffffffffffffffffffffff166370a08231306040518263ffffffff1660e01b8152600401808273ffffffffffffffffffffffffffffffffffffffff1673ffffffffffffffffffffffffffffffffffffffff16815260200191505060206040518083038186803b15801561059757600080fd5b505afa1580156105ab573d6000803e3d6000fd5b505050506040513d60208110156105c157600080fd5b810190808051906020019092919050505010156105dd57600080fd5b80600260009054906101000a900473ffffffffffffffffffffffffffffffffffffffff1673ffffffffffffffffffffffffffffffffffffffff166370a08231306040518263ffffffff1660e01b8152600401808273ffffffffffffffffffffffffffffffffffffffff1673ffffffffffffffffffffffffffffffffffffffff16815260200191505060206040518083038186803b15801561067d57600080fd5b505afa158015610691573d6000803e3d6000fd5b505050506040513d60208110156106a757600080fd5b810190808051906020019092919050505010156106c357600080fd5b600160009054906101000a900473ffffffffffffffffffffffffffffffffffffffff1673ffffffffffffffffffffffffffffffffffffffff1663a9059cbb33846040518363ffffffff1660e01b8152600401808373ffffffffffffffffffffffffffffffffffffffff1673ffffffffffffffffffffffffffffffffffffffff16815260200182815260200192505050602060405180830381600087803b15801561076c57600080fd5b505af1158015610780573d6000803e3d6000fd5b505050506040513d602081101561079657600080fd5b810190808051906020019092919050505050600260009054906101000a900473ffffffffffffffffffffffffffffffffffffffff1673ffffffffffffffffffffffffffffffffffffffff1663a9059cbb33836040518363ffffffff1660e01b8152600401808373ffffffffffffffffffffffffffffffffffffffff1673ffffffffffffffffffffffffffffffffffffffff16815260200182815260200192505050602060405180830381600087803b15801561085157600080fd5b505af1158015610865573d6000803e3d6000fd5b505050506040513d602081101561087b57600080fd5b8101908080519060200190929190505050505050565b600360009054906101000a900473ffffffffffffffffffffffffffffffffffffffff1681565b600360009054906101000a900473ffffffffffffffffffffffffffffffffffffffff1673ffffffffffffffffffffffffffffffffffffffff163373ffffffffffffffffffffffffffffffffffffffff161461091157600080fd5b600082101561096b576040517f08c379a000000000000000000000000000000000000000000000000000000000815260040180806020018281038252602a81526020018061127e602a913960400191505060405180910390fd5b60008110156109c5576040517f08c379a00000000000000000000000000000000000000000000000000000000081526004018080602001828103825260288152602001806112a86028913960400191505060405180910390fd5b81600160009054906101000a900473ffffffffffffffffffffffffffffffffffffffff1673ffffffffffffffffffffffffffffffffffffffff166370a08231336040518263ffffffff1660e01b8152600401808273ffffffffffffffffffffffffffffffffffffffff1673ffffffffffffffffffffffffffffffffffffffff16815260200191505060206040518083038186803b158015610a6557600080fd5b505afa158015610a79573d6000803e3d6000fd5b505050506040513d6020811015610a8f57600080fd5b81019080805190602001909291905050501015610aab57600080fd5b80600260009054906101000a900473ffffffffffffffffffffffffffffffffffffffff1673ffffffffffffffffffffffffffffffffffffffff166370a08231336040518263ffffffff1660e01b8152600401808273ffffffffffffffffffffffffffffffffffffffff1673ffffffffffffffffffffffffffffffffffffffff16815260200191505060206040518083038186803b158015610b4b57600080fd5b505afa158015610b5f573d6000803e3d6000fd5b505050506040513d6020811015610b7557600080fd5b81019080805190602001909291905050501015610b9157600080fd5b600160009054906101000a900473ffffffffffffffffffffffffffffffffffffffff1673ffffffffffffffffffffffffffffffffffffffff166323b872dd3330856040518463ffffffff1660e01b8152600401808473ffffffffffffffffffffffffffffffffffffffff1673ffffffffffffffffffffffffffffffffffffffff1681526020018373ffffffffffffffffffffffffffffffffffffffff1673ffffffffffffffffffffffffffffffffffffffff1681526020018281526020019350505050602060405180830381600087803b158015610c6e57600080fd5b505af1158015610c82573d6000803e3d6000fd5b505050506040513d6020811015610c9857600080fd5b810190808051906020019092919050505050600260009054906101000a900473ffffffffffffffffffffffffffffffffffffffff1673ffffffffffffffffffffffffffffffffffffffff166323b872dd3330846040518463ffffffff1660e01b8152600401808473ffffffffffffffffffffffffffffffffffffffff1673ffffffffffffffffffffffffffffffffffffffff1681526020018373ffffffffffffffffffffffffffffffffffffffff1673ffffffffffffffffffffffffffffffffffffffff1681526020018281526020019350505050602060405180830381600087803b158015610d8757600080fd5b505af1158015610d9b573d6000803e3d6000fd5b505050506040513d6020811015610db157600080fd5b8101908080519060200190929190505050505050565b600260009054906101000a900473ffffffffffffffffffffffffffffffffffffffff1681565b80600160009054906101000a900473ffffffffffffffffffffffffffffffffffffffff1673ffffffffffffffffffffffffffffffffffffffff166370a08231336040518263ffffffff1660e01b8152600401808273ffffffffffffffffffffffffffffffffffffffff1673ffffffffffffffffffffffffffffffffffffffff16815260200191505060206040518083038186803b158015610e8d57600080fd5b505afa158015610ea1573d6000803e3d6000fd5b505050506040513d6020811015610eb757600080fd5b81019080805190602001909291905050501015610ed357600080fd5b6000670de0b6b3a764000090506000818381610eeb57fe5b04905060006004548281610efb57fe5b049050828102600260009054906101000a900473ffffffffffffffffffffffffffffffffffffffff1673ffffffffffffffffffffffffffffffffffffffff166370a08231306040518263ffffffff1660e01b8152600401808273ffffffffffffffffffffffffffffffffffffffff1673ffffffffffffffffffffffffffffffffffffffff16815260200191505060206040518083038186803b158015610fa057600080fd5b505afa158015610fb4573d6000803e3d6000fd5b505050506040513d6020811015610fca57600080fd5b81019080805190602001909291905050501015610fe657600080fd5b600160009054906101000a900473ffffffffffffffffffffffffffffffffffffffff1673ffffffffffffffffffffffffffffffffffffffff166323b872dd3330866004548602026040518463ffffffff1660e01b8152600401808473ffffffffffffffffffffffffffffffffffffffff1673ffffffffffffffffffffffffffffffffffffffff1681526020018373ffffffffffffffffffffffffffffffffffffffff1673ffffffffffffffffffffffffffffffffffffffff1681526020018281526020019350505050602060405180830381600087803b1580156110c957600080fd5b505af11580156110dd573d6000803e3d6000fd5b505050506040513d60208110156110f357600080fd5b810190808051906020019092919050505050600260009054906101000a900473ffffffffffffffffffffffffffffffffffffffff1673ffffffffffffffffffffffffffffffffffffffff1663a9059cbb338584026040518363ffffffff1660e01b8152600401808373ffffffffffffffffffffffffffffffffffffffff1673ffffffffffffffffffffffffffffffffffffffff16815260200182815260200192505050602060405180830381600087803b1580156111b057600080fd5b505af11580156111c4573d6000803e3d6000fd5b505050506040513d60208110156111da57600080fd5b81019080805190602001909291905050505083600560003373ffffffffffffffffffffffffffffffffffffffff1673ffffffffffffffffffffffffffffffffffffffff1681526020019081526020016000205401600560003373ffffffffffffffffffffffffffffffffffffffff1673ffffffffffffffffffffffffffffffffffffffff1681526020019081526020016000208190555050505050565b6004548156fe616464696e6720616d6f756e74205477642073686f756c642062652067726561746572207468616e2030616464696e6720616d6f756e7420412073686f756c642062652067726561746572207468616e20307769746864726177696e6720616d6f756e7420412073686f756c642062652067726561746572207468616e20307769746864726177696e6720616d6f756e74205477642073686f756c642062652067726561746572207468616e2030a265627a7a723158209123a35b22c01980a2c17b6f24ed13a8c6fbe480410de5183d8eab52ff3744fe64736f6c63430005100032",
  "source": "pragma solidity >= 0.5.0;\n\nimport \"./MTwd.sol\";\nimport \"./AToken.sol\";\n\ncontract StakeA {\n\tstring public name = \"Stake Pool A\";\n\tMTwd public mtwd;\n\tAToken public atoken;\n\taddress public owner;\n\t//set transfer rate   \n\tuint public rateStake = 1;\n\n\t//add stakingBalance\n    mapping(address => uint) public stakingBalance;\n\t\n\t\n\n\tconstructor(MTwd _mtwd ,AToken _atoken) public {\n\t\tmtwd = _mtwd;\n\t\tatoken = _atoken;\n\t\t// set deployer as owner of the contract\n\t\towner = msg.sender;\n\t}\n\n\tfunction addLiquidity(uint _addLiquidityAmountTwd, uint _addLiquidityAmountA) public {\n\t\t//only owner can add liquidity && adding amount should >= 0 && liquidity provider should have enough token \n\t\trequire(msg.sender == owner);\n\t\trequire(_addLiquidityAmountTwd>= 0, \"adding amount Twd should be greater than 0\");\n\t\trequire(_addLiquidityAmountA >= 0, \"adding amount A should be greater than 0\");\n\t\trequire(mtwd.balanceOf(msg.sender) >= _addLiquidityAmountTwd);\n\t\trequire(atoken.balanceOf(msg.sender) >= _addLiquidityAmountA);\n\n\t\t// add liquidity \n\t\tmtwd.transferFrom(msg.sender, address(this), _addLiquidityAmountTwd);\n\t\tatoken.transferFrom(msg.sender, address(this), _addLiquidityAmountA);\n\t\t\n\n\t}\n\n\tfunction withdrawLiquidity(uint _withdrawLiquidityAmountTwd, uint _withdrawLiquidityAmountA) public {\n\t\t//only owner can withdraw liquidity &&  withdrawing amount should >=0 && pool should have enough token to be withdrew\n\t\trequire(msg.sender == owner);\n\t\trequire(_withdrawLiquidityAmountTwd >= 0, \"withdrawing amount Twd should be greater than 0\");\n\t\trequire(_withdrawLiquidityAmountA >= 0, \"withdrawing amount A should be greater than 0\");\n\t\trequire(mtwd.balanceOf(address(this)) >= _withdrawLiquidityAmountTwd);\n\t\trequire(atoken.balanceOf(address(this)) >= _withdrawLiquidityAmountA);\n\n\t\t//withdraw liquidity\n\t\tmtwd.transfer(msg.sender, _withdrawLiquidityAmountTwd);\n\t\tatoken.transfer(msg.sender, _withdrawLiquidityAmountA);\n\t}\n\n\tfunction stake(uint _amountTwd) public {\n\n\t\t//investors cannot stake more MUsdt than they have\n\t\trequire(mtwd.balanceOf(msg.sender) >= _amountTwd);\n\n\t\t//erc20 token: 1 ether == 10^18 wei\n\t\tuint unit = 10 ** 18;\n\n\t\t//transform _amountTwd to the form of \"ether basis\" and round to integer\n\t\tuint amountTwdInEther = _amountTwd / unit;\n\n\t\t//calculate how much A token to transfer to staker\n\t\tuint amountATokenInEther = amountTwdInEther / rateStake;\n\n\t\t//pool has enough token A \n\t\trequire(atoken.balanceOf(address(this)) >= amountATokenInEther*unit);\n\n\t\t//transfer twd from investor's wallet to pool\n\t\tmtwd.transferFrom(msg.sender, address(this), amountATokenInEther*rateStake*unit);\n\n\t\t//transfer A token from pool to investor\n\t\tatoken.transfer(msg.sender, amountATokenInEther*unit);\n\n\t\t// Update staking balance\n        stakingBalance[msg.sender] = stakingBalance[msg.sender] + _amountTwd;\n\n\t}\n\n\n}",
  "sourcePath": "C:\\Users\\A0928\\OneDrive\\文件\\GitHub\\Fundraising-Platform\\truffle\\contracts\\StakeA.sol",
  "compiler": {
    "name": "solc",
    "version": "0.5.16+commit.9c3226ce.Emscripten.clang"
  },
  "schemaVersion": "3.4.6",
  "updatedAt": "2022-11-01T10:23:13.517Z",
  "networkType": "ethereum",
  "devdoc": {
    "methods": {}
  },
  "userdoc": {
    "methods": {}
  }
}